:400000000010002011000000510300005103000008B500F04DFA00F09DF90000F8B572B680220021D200444801F045F88022002442480021D20001F03EF8201C404AFF25E5
:40004000A75810323E1C111C4300AE433D4001334019D318420001328A18934206D0591E09781D7889190D700233F6E70434102CE4D1C022334B92041A6099220026324B18
:4000800080271A60314B324A1E60324B3F061E6099231B041360304A022117602F4A3C25136080222E4B92051A602E4A2E4B2F481A602F4A13780B4313700378AB43283D09
:4000C0002B430370162013782A4D034313708022294B40181A608022284BD2031A604022274B1A60C022274B52031A603122264B1960264B1A608022254BD20219602B6847
:4001000013432B6000F08CFE2A68224B13402B60214A224B1A602022214B1C60214B1A60214B224A1F60224B2E601A60214A224B1A60224B1E60F8BD00300F4000400F4059
:40014000D410000004000140100001400C00014000500F400803044004500F4010500F4018500F40100001002001054001700F4000700F4000010B400000044008000440EF
:400180000001044008010440000404400804044018040440FFFFFBFF0600008004010B40080202402002024008010B401000008000000240AF040080400002400C020B4003
:4001C00010B5064C2378002B07D1054B002B02D0044800E000BF0123237010BDF000002000000000D010000008B5084B002B03D00748084900E000BF07480368002B00D19B
:4002000008BD064B002BFBD09847F9E700000000D0100000F4000020D00000200000000010B562B600F0A4FC00280ED16524012000F0D6FD00F09CFC002806D1013CE4B2D4
:40024000002CF4D14022034B1A6000F083FC00F0D7FAFEE7C000002008B500F011FB00F045FB00F0ADFB08BD70B50D1C161C0024034BC9B21C8000F097FB3580201C70BD7F
:400280000C010020F0B50A26171C00245E4387B0039005912D4DB4421ADA00F019FB80B228802B88002B0DD002202C8800F098FD00F00EFB80B228802B88A4B2A342F3D800
:4002C000002306E00120013400F08AFDA4B2E1E70523002401933C802B88002B32D02E883B88B6B2F318059A9BB23B80934220D2A3199BB20293029B9C4209D0631C9BB276
:400300000493039B1C1900F0C9FA2070049CF2E772B62B889E1BB6B22E8062B6039B029A9B18013B1B78172B0AD0052000F058FD06E09E1B3E8000F0D9FA0523019301E0D6
:40034000029CC9E7019807B0F0BDC0460C010020FEE7000070B51049104B01394A1C15D000221E685C689D68A018AA4203D0B058A0500432F8E7021CDC68151AA54202D07D
:40038000002520C2F9E710330139E7E700F064FEFFF746FFFEE7C046010000005411000008B500239A000D49032B01D80C4989580C4801338150302BF4D1FFF72FFE002262
:4003C000094B1A60094B1A68002A00D11A6080220121D20513680B43136008BD510300000000000000000020C8000020C0000020004770B5051C0E1C141C002802D000200B
:4004000000F0E0FC0020002C05D0013CAB191B5DC018C0B2F7E770BD013808B509282AD8C901494200F004FE0507090B0D0F1614181B154B08E0154B12E0154B0DE0154BB1
:400440000EE0154B00E0154BC9180878C0B21AE0134B02E0134B00E0134BC9180FE0134BC9180A7848788B7800021B041843CB7810431B0606E0002000F0A4FC00210B7884
:4004800048780002184308BDC07F0000C17F0000C57F0000C97F0000D07F0000D17F0000D67F0000D27F0000D47F0000D87F00000C4B10B51A68102313400B4A00D11360A3
:4004C0001368802B0DD100240220211C1460FFF7A3FFA04205D0211C0220FFF79DFFFFF787FF10BD00030B40C0000020F8B5061C0320311CFFF790FF041C311C0420FFF7FF
:400500008BFF0134E401271800240320311CFFF783FF251C0130C001B84209D203785A1ED2B2FD2A00D801251C19E4B20130F3E70120311CFFF770FF6442E4B20623844254
:4005400003D16A4255416D422B40181CF8BD0000F0B5A34CA544FFF77FFE62B6002300930025962106AC03AE201C4900321CFF23FFF788FE0028F4D13188062900D889E0DE
:4005800022780423012A55D1E778A2783F021743E2195679B44616790196FE1D8E427ED89279172A46D1FB189BB2002B08D09CAA8C49D21852181278013B801880B2F3E74B
:4005C000634640421A02019B80B21A430823824230D166E0342B00D09CE0009B012B59D1032F57D151A80021802200F064FD8025172151AB581902ABED19FA1EC918ADB2FB
:4006000000F050FD832D47D1A079637900021843754B36021B6880191A6880B2D3099BB2520601D001339BB2984279D20123002500930933002101206370002302AA06326F
:400640002070081D1180A170E37080B29CAE654F3618F619367801389B1980B29BB20028F4D19CA8614E40185B4286199BB233705F4E1B0A861933705E4B0731C0181723BE
:4006800089B20370201C7F33FFF7EEFD69E7009B012B1BD00423CDE70123002500930323C8E763782679181C31380A2801D90523C0E700F0C7FCECFF1400FCFF8FFF3E00C4
:4006C000FCFF420053008FFF62008A00002FE1D1381CFFF70BFF43424341237172E0009B012BD7D1012FD5D1002ED3D13E4B1B681B68DA0BD2B2DB09DBB2002A01D08023AE
:400700005B0023711B0A6371FF23A37100230421E37190E7009B012BBCD1022FBAD967E751A900F041FA002880D10123051C009312E0009B012BADD112E7009B012BA9D13B
:400740002C33EE19FF339E42A9DC51AB581907A93A1C00F0A7FCB5B200236BE7002F99D104AB191C244A41CA41C107AA03CB03C20123082100933B1C5DE7009B012B89D1C2
:40078000032F87D1A37962791B021A43310251180192C90100208022FFF72BFE071C002E0ED1019BFF2B0BD1311C0520FFF734FE311C3F1A0620FFF72FFEFFB23F1AFFB24E
:4007C0007F4227710023012135E70020FFF78EFE002802D18022094B1A6000F0F5FA59E78CFDFFFFA7FDFFFFD4000020ACFDFFFFADFDFFFFAEFDFFFFF8100000C000002016
:4008000038B50020FFF772FE431E98410624134D40422B6804401A680020C03AC021FFF7E8FD6B681B78181AC0B2984203D12B681B68002B02D1002000F0C4FA084B196862
:400840001A1C402901D0002C03D000231360FFF77FFE80221A6000F0B7FA38BDD4000020C00000208021054A08B5136809060B4313600A2000F092FA08BDC04600000640CB
:4008800010B5054C2378002B03D100F0BBF801232370FFF7E7FF10BD10010020094B0A491A680B6800209A420AD00B685A1C403B581E83415B421A40044B985C0A60C0B22E
:4008C0007047C046B0010020280100206C010020044B1868044B1A681B68904200D24130C01A7047B001002028010020002030B580250B4A0B4B1468106019686D02294314
:4009000019601D68084929401960084B1968084B1960084B08491870084B1960146030BDC80F064004030640FFFFFEFF28010020B0010020AD010020ED0F0000C00F06402F
:40094000124A10B51368591C3F3B5C1EA3415B4219400F4B1C68A142FBD014681B689C4208D10C4B1C680F232340082B02D00A4B18600AE00224094BC0B21C60084B5854C3
:400980001160084A13682343136010BD24010020200100200802064040020640800F06402C010020880F064038B5041C4518AC4204D02078FFF7C4FF0134F8E738BD000070
:4009C000002310B580240A4A640211681360094B1868204318601C68074820401860074B1868074B186002239943116010BDC046880F064004020640FFFFFEFF2001002025
:400A00002401002010B51D4A00241D4B07201A6001221C4B1C491C601C4B1A601C4B0B601C4908601C4903300C601C490A601C4A13601C4B1C6000F0BBF90A20032100F0BC
:400A40008FF919490A2000F07FF90422174B1C60174B1C60174B1C60174B1C60174B1A60174B1C60174B1C60174B1C60174B1C70174B1C60174B1C6010BDC0460B0000025C
:400A8000000006404000064000030640480006400700008004030640100306404400064000020640040206404D0F0000880E0640C80E0640480F0640080F0640C80F0640DD
:400AC000880F0640B001002028010020AD0100202401002020010020842280210D4BD2041A601A6849020A431A600B490B4A0A6019681960C3210A4B890019600021094B6B
:400B00001960094B1C311960084B1A60084A094B1A60704700010540080105401027000024010540380105402801054014010540881300000C01054008B500F02BF8012124
:400B4000034A13680B43136000F028F808BDC0460000054010B5054C2378002B03D1FFF7BBFF01232370FFF7E7FF10BD18010020024B18680006C00F7047C046040004402C
:400B80000230800804D0C0460138FDD1C046C046C0467047EFF3108072B6704780F310887047C046C046C046F0B50024CDB008940994FF2800D9A5E0A14200D1A2E00AADBB
:400BC00003908022281C00F06DFA231C211C221C019498002858002802D01218014301930133202BF5D1002A05D1002900D08CE000910B1C01E00023009302937F23484FFB
:400C0000484C2AAE80222CA8291C2A972B9300F049FA2660444B454E336022680693120F059700230A2A02D022680F3313400893089F002F71D1FFF7ADFF3D4A3D4B11689B
:400C400009971960089B04900792002B13D13A4A03992A922A9A09040A432A922AAA2260364A32602268120F0A2A03D02D4B1A680F2313400893089F002F37D1009B002BEE
:400C800034D0281C391C802200F015FA019B029A0AA99B005A50059B2AAD2A937F232CA880226B6000F0FEF9069B2560336023681B0F0A2B03D01B4B1F680F231F40089735
:400CC000089B002B12D11E4A03992A922A9A080410431C4A2A90256032602268120F0A2A03D0104B1A680F2313400893099B002B04D1104A079912680A6009930498FFF7CA
:400D00004DFF0AE00423089307E0019B9B00E958EA5001230291009370E708984DB0F0BDB6D7000008000040040000800400004008010B401C010020B6D8000005000080F6
:400D4000B6D90000060000801F2800D901BE034B8000C318186819607047C0464000002038B5041C0D1E032D00D901BE1F2C00D901BEFFF70FFFA308074A9B009B1803226A
:400D8000144094400634A240A5401968914329431960FFF703FF38BD00E400E01F2318401E3B8340181C014B1860704700E100E01F2318401E3B8340181C014B1860704794
:400DC00080E100E001BE7047034A044913689BB20B4313607047C0460CED00E00400FA0510B5041C8022074B1202944205D91868FFF7C6FE044BE418F4E758686043FFF726
:400E0000BFFE10BDDC0000200080FFFF08B5034B1B7A5843FFF7B4FE08BDC046DC000020F0B5C31E87B002932D2B65D8344B1B78984204D8334B1D78334BEDB21EE0334BA9
:400E40001B78984204D8324B1D78324BEDB215E0314B1B78984204D8304B1D78304BEDB20CE0304B1B78984204D82F4B1D782F4BEDB203E02E4B1D782E4BEDB21C782E4E26
:400E8000029B0390F35CE4B20193FFF783FE019B04900596294F2F2B05D9039B2A2B02D919263E6008E03F233E681E40019BB34205D2224B019A1A600520FFF761FE1D4AD3
:400EC000039B944663441B781D4ADBB213601D4B05201D601C4B1C60FFF798FF019BB34206D9059B029A05209B5C3B60FFF748FE0498FFF753FE00E001BE07B0F0BDC046D4
:400F0000C0F1FF0FC1F1FF0FC2F1FF0FC3F1FF0FC4F1FF0FC5F1FF0FC6F1FF0FC7F1FF0FC8F1FF0FC9F1FF0FCAF1FF0FCBF1FF0FCCF1FF0FCDF1FF0F001100002CFF0B405D
:400F400028FF0B401CFF0B4020FF0B40274B10B51B68002B00D09847254B1B685B071DD5244B1B681B0716D0234B2448196803685A1C403B5C1EA3415B421A40204B1B6860
:400F80009A4203D120221F4B1A70E9E7CBB21E498B540260E4E704221C4B1A601C4B1B689B0721D51B4B1A680F231340082B18D0194B1A491A680B689A420DD00B685A1C1C
:400FC0003F3B581E83415B421A40154B15489B5CDBB203600A60E5E70221134A13688B4313600222114B1A6010BDC04614010020CC0F06400803064040030640B001002062
:4010000028010020AD0100206C010020C00F06408C0F06400802064024010020200100202C01002040020640880F0640800F064002B4714649084900095C49008E4402BC74
:401040007047C04603B47146490840004900095E49008E4403BC70470E4B70B500251E1C0D4CE41AA410A54204D0AB00F35898470135F8E700F05CF8084B00251E1C084C9C
:40108000E41AA410A54204D0AB00F35898470135F8E770BD3C1100003C1100003C11000044110000002310B5934203D0CC5CC4540133F9E710BD031C8218934202D01970D6
:4010C0000133FAE77047000000120000DA0000000000000001330F4003410F4004430F4002600F40E61062048E04D84018808C40C608E608020111019311C804111E0101FF
:40110000030405060708090A0B0C0E0F101112131415161718191B1C1D1E1F2021222325262728292A2B2E2F3031323334350000F8B5C046F8BC08BC9E467047E90100000F
:40114000A1030000F8B5C046F8BC08BC9E467047C101000068110000D000002020000000C80000000000000000000000C8100000CC1000000000E02EC05D000018000000FB
:4011800000366E010000000000000000000000000000000000000000000000000000000000000000000000000000000000000000000000000000000000000000000000008A
:4011C00000000000000000000000000000000000000000000000000000000000000000000000000000000000000000000000000000000000000000000000000000000000EF
:401200000010002011120000812500008125000008B5024B83F3088801F0B4F900100020F8B572B680220021D200524801F0FFFE80225148D200002101F0F9FE0022141CD7
:401240004E49FF2557581C313E1C081C6300AE433D4001336419CB186100013141188B4206D0581E00781D78801905700233F6E704321C2AE4D1EE22414B12021A6099228C
:40128000404B80201A6099233F4A1B04136080223E4912060A603E4900030B603D493C2408603D493D480B603D490A6002213D4A13603D4A13780B4313700378A343283C99
:4012C0002343037016201378384C034313708022374B40181A60374A374B1A600322374B1A60C022364B52031A608322354B1A60FF23354A1360354A1360D822344B120110
:401300001A603122334B1960334B1A608022334BD202196023681343236001F071FC22682F4B3049134023602F4A304B01201A6020222F4B1A602F4B103A1A6082222E4B4F
:4013400012061A6000232D4A236011602C492D4A11602D4A136088222C4BD2021A6004222B4B1A602B4B2C4A13602C4A136001F057F9F8BD00300F4000400F40D033000032
:401380000C0001401000014000500F4004500F4010500F4018500F4020500F4001700F4028500F4030500F4000700F4000010B4000000440060040000800044000010440AC
:4013C0000801044018010440000204401802044008030440000404400804044018040440FFFFFBFF010000800600008004010B40080202401C02024008010B4000000240C7
:401400000C000080400002400C020B4080001040C00010407F00400000031A4040031A4010B5064C2378002B07D1054B002B02D0044800E000BF0123237010BD0801002012
:40144000000000004C30000008B5084B002B03D00748084900E000BF07480368002B00D108BD064B002BFBD09847F9E7000000004C3000000C010020D00000200000000089
:4014800003790B7043681B0A4B7043681B0C8B7043681B0ECB70037A0B7183681B0A4B7183681B0C8B71836808201B0ECB7170470A7842604B781B02134343608A781204B7
:4014C00013434360CA781206134343600A7982604B791B02134383608A79120413438360CA791206134383600820704700487047E430000000487047F23000000048704729
:4015000013310000004870472C310000004870474D310000004870476031000000487047C830000000487047813100008D239B00C05C70470022F0B5061C03790C1C0B7030
:401540004A708A70CA7085B0043130790B1B90420DD9F06893001B580132180A0B704870180C1B0E8870CB70D2B20431EDE7327CE118E254002204334A708A70CA70E3187A
:40158000317C1D1B91420DD9B069910009580132080A19705870080C090E9870D970D2B20433EDE7337F6219635500231F1C537093700435D370337FBB421AD9BB0001936B
:4015C000019A736A985801F03AFD03A9009003900422601901F022FD736A019A043599586019009A01F01AFD009B5D197B1CDFB2E1E7281C05B0F0BD73B50379061C0B7038
:4016000080680D1C01F01BFD041C019001A9681C042201F003FD681DB168221C01F0FEFC601D76BDF0B5838887B00B708388051C1B0A4B7080680C1C01F001FD061C039001
:4016400003A9A01C042201F0E9FCA968321CA01D01F0E4FCB31DE868019301F0F0FC071C019B049004A9E01804220A3601F0D6FCE9683A1CA01901F0D1FC286901F0DFFCEC
:40168000F619071C059005A9A0190422043601F0C5FCA0193A1C296901F0C0FC6B69F01923541A0A2418627004301A0C1B0EA270E37007B0F0BD73B50C1C0B78042203715D
:4016C000051C013101A801F0A9FC019A631D501D191B814204D21E78591E0E700133F7E70023A21804341371AC6076BD7FB50C1C0A78061C82804B7802311B021343838020
:40170000042201A801F08AFC019AA31D951D191BA94204D21878591E08700133F7E70023A2185371631DB3606119042202A801F075FC029A2B1D9D181A1CAA4204D2A05C63
:40174000511E60540132F8E700206119013B4A1EE3181070F36003A8042201F05FFC039B0435E8182B1C834204D2E15C5A1EA1540133F8E700212218013D531E6519197084
:401780003561537819029378D2781B040B43215C12060B4313430430736104B070BDF0B585B000910D780379041CAB4200D905710027009B1E1DF9B2A94218D273781A027D
:4017C000B3781B04134332781343F27812061343A36023798B4207D9211CE368B80018180831042201F01AFC01370436E3E70135009AAB00D5182E78227CB24200D9267400
:40180000002704330193F9B2B14218D26B791A02AB791B0413432A791343EA79120613436361237C8B4207D9211CA369B80018181431042201F0F2FB01370435E3E7019B6A
:40184000B600F618009B9D5D237FAB4200D9257700270436FBB20193AB422BD2009B03A89919042201F0DAFB039B0436F3189C46331C634506D20099009AC85C591E505495
:401880000133F6E70021009B009A6344013B1970731ED3182362019A237F6646934207D9211C636AB80018182031042201F0B6FB0137CFE7301C05B0F0BD0000F0B5041C4A
:4018C00087B00D1E632D05DD8D2300269B00C35CB3424FD0211C1368101C1B68E731271C9847FF23E0373B70231CFE22E1331A70221C211CC3B2E2321370020AD2B2E331C3
:401900000A70D318221CDB43E4321370231CE5331D702D125D7005220023811D914205DB111CE031615C01325B18F6E7021CDB4320180832E73001920370C82A0CD8161C71
:401940003D1C019AEB1B934214DA60682978036801359B689847F4E7084B03AA039303231371074B201C9360236807211B68012698477642301C07B0F0BDC04688300000C0
:40198000A23100001FB5074B0A210193002302930393036801AA1B68041C984700F09AFAE0601FBD58300000F0B52D4B87B0002200936B46061C051C041C9A80294BA936D7
:4019C000F9350293039304930592FF36FF353368002B18D06A461989586891801A68036802929B6898473368039058680368DB689847C823326805932368049011691B680F
:401A0000201C6A4698470436AE42E0D188239B00E6182868002819D06B4682889A808368029303689B689847039028680368DB689847C82304900593286823681F680368A5
:401A40005B6898476A46011C201CB8470435B542DFD18D2301229B00E25407B0F0BDC04670300000DA310000F0B5244B87B003930023041C0E1C0493059300F02BFAE36846
:401A8000311CC51A03A8FFF713FDFA21281C890001F00CFAFA21049B8900C0180490281C019301F089FA164E059B7143C9180193059100F00FFAFA21049B8900071C0193B9
:401AC0005D1E01F0F3F9FA212D1A0E4B2561059D381C8900ED1801F06FFA201C4E43211CAE1B14316661103000F07AFA00F0F2F98F239B00E05007B0F0BDC04658300000A2
:401B000040420F0000CA9A3BF8B5041C00F0E2F98F239B00E3587C4A051CC31A934203D98D2300229B00E25488239B00E258002A06D090229200A258954201D90022E2507A
:401B4000606803685B689847002800DAC8E08C218822890063589200A658C3186350072E0FD10C32A358591CA150E318083A1876A358013BA350002BE2D1882308229B0036
:401B8000DDE7002E12D1FF2806D10123A35090222B1C9200C8330EE000F09CF9401B0228CED98D239B00E654022670E0012E0FD1FE2802D10223A350C2E70023A3508D238A
:401BC0009B00E35C002BBBD1201CFFF7DBFEB7E7022E07D1892300269B00E0500833E650032320E0032E07D189239B00E15800020818E0500423DEE7042E0ED1434A1340B7
:401C000003D5434A013B1343013388229200FF2B01D1FA3BCFE70023CDE7052E06D18A239B00E0500623A350605089E7062E0BD18A239B00E15800020818E0500723A350C1
:401C400089239B00E35896E7082E00D078E7882200219200A1502D4A13408B4203DA2C4A013B13430133FF2B00D069E72A33FF33E358002B0DD1201CFFF784FE201CFFF7FF
:401C800093FE8E2301269B00E5500433E550764238E00A2B05D1211C201C1831FFF7E4FE4EE7062B09D19223211C9B00E0181831FFF775FD0122912303E00B2B04D10022AD
:401CC0008D239B00E2543BE71A339B001859002800D135E7211C036818311B6898472FE78D2300269B00E35CB3420BD08E27FA22BF00E3599200EB1A934203D9201CFFF7A4
:401D000041FEE551301CF8BD98080000FF00008000FFFFFF70B500F0BBF862B600F0DAF8194C061C6068A168036800251B68984788239B00E5500433E5500833E550043B8F
:401D4000E55000F001F900F087F900F083FB00F017F900F09DF900F0BFFB00F0BBF8801B0ED400F0C7FC002806D10135EDB2012D03D900F09FFE00E00025FA239B00F6182D
:401D8000201CFFF7C1FEE2E7240100201E4A1F4B8D2113601E4B89005360E1231B02936000231C4853541431505004315354083153500431535408315350043153540831E0
:401DC0005350181C0021A930FF30101804330160502BF6D10B1C181C0021F930FF30101804330160282BF6D10023501801310376C829F9D1191C0020E031511801330870C7
:401E0000C82BF7D17047C04624010020B830000094030020A030000008B50901054B4808C01801F043F8002180B200F06BFC00F081FC08BD00366E0108B500F0A3FC002816
:401E400002D000F085FC01E001204042D822034B92001968114200D01A6008BDC00F064008B5081C00F09CFC012008BD024B034A083313607047C046E031000094030020AD
:401E8000024A1368013313607047C0461405002008B50B490F2000F053FEC020094A0A4B0A4953600B6A00061B021B0A03430B620023072193601160054A136008BDC04603
:401EC000811E000010E000E0BF5D000000ED00E014050020014B18687047C046140500200048704710320000004870472032000073B50C1C0422051C01A801F08FF8019AAA
:401F0000231D101D191B814204D21E78591E0E700133F7E70023A2180334D3706C6076BD73B5061C40680D1C01F089F8041C019001A9281C042201F071F8281D7168221C6C
:401F400001F06CF8201D76BD08B500231A1C0A486A3292001158002905D108496E3311508B60C86002E00133142BEFD1FFF7B2FF024B586108BDC0462401002098030020AB
:401F800010B5FFF7A7FF094B5A69801A00280CDDFA21890052185A61054AD868DA611A1C016818320C689968A04710BD98030020D4000020064B074A9A61074ADA61074A30
:401FC0001A601A1C18325A6000221A617047C0469803002000320000DA3100004132000070B50D68061C0C1C281C064900F05EFF3368044918183060281C00F0DDFF21606B
:4020000070BDC04600CA9A3B00207047002070470048704780320000004870478F3200000123024A11785B1A13707047B803002080697047004870478032000000487047DC
:402040008F32000008B50369002B02D14369002B01D00C30984708BD38B500240A4D201C2C7000F01BFD201C031C084A7E339B009958002904D1291D64309950A86002E013
:4020800001300A28F0D138BDB80300202401002008B5024B187800F001FD08BDB8030020064B074A5A60074A1A61074A5A6100229A610132DA61054ADA607047B8030020E5
:4020C000703200005832000021200000B032000000487047083300000048704725330000F8B50024061C0F1C042503794C700B708C70CC7033797919A34209D9B36920018C
:402100001818036801341B689847E4B22D18F1E7337F281D7B55F3691B0A4B70F3691B0C8B70F3691B0ECB70F8BD00000048704746330000004870476033000070B5051C74
:4021400004300C1CFFF7CCFF691DCB7F221823540023043053709370D370CA7F9A420AD9AE6A5A00925B013322542618120A72700230DBB2F1E770BD00487047813300009D
:40218000004870479A3300000120F0B5414B85B01B680193034204D13F4B019A1A6005B0F0BD3E4B1A88013292B211B20F2901DC1A8011E0002299781A80914201D198701B
:4021C00008E0012901D1112208E0112906D1101C0139997000F0ECFD00241BE09A70FBE72E4A0021535E002B23D02C4BA200991888689E7840198860F00746D5486B4019E5
:402200009B1848631A6EF10642D5551901341D66072CC1D8201C00F029FCE31F59425941CBB285B20293002BDAD000F089FD2418D6E79678002ED8D16300039353681F6883
:40224000A300D31899689868C917090F0918039809113952116BD26D09689E608C46596BCF173F0F791867460911395217681A6E5E63D117090F8A1812113A521E66029B65
:40228000002BB2D000F0FAF9AFE7486B401BB7E7551BBBE71C021A4010021A40D803002073B50D1C0422041C01A800F0B7FE01982B1D021D591B914204D21E78591E0E70CE
:4022C0000133F7E700212B18D970E91C6160A95C0C30A1605A7912020A43A260997909040A43A260D97909060A43A260197AE1605A7A12020A43E260997A09040A43E260C9
:40230000DB7A1B061A43E26076BDF0B50B7885B001930379019A041C0F1C934202D96B461B79037100260425019AF3B202937919934213D2231C0833181C0393FFF7B0FF40
:402340002379029A2D18934206D9A369300118180399102200F062FE0136E5E77A5D281DE2614B781B021343E3618A7812041343E361CA7812061343E36105B0F0BDF7B511
:40238000061C04300C1CFFF7C0FF731D241800932578DB7FAB4201D9009BDD770027031D0193FAB2AA4213D2637921791B020B43F384009BDB7F934207D9311CB36A7800A2
:4023C00018182631022200F029FE01370234E8E7019B6D00E818FEBD73B5041C40680E1C00F02DFE051C019001A9301C042200F015FE301D61682A1C00F010FE281C237AD9
:4024000071190B71A3680C301B0A4B71A3681B0C8B71A3681B0ECB71237B0B72E3681B0A4B72E3681B0C8B72E3681B0ECB7276BD08B500F0AFFC00F079FC00F01FF900F080
:40244000FDFA00F009FB024800F050FB08BDC04689210000002310B51A1C1A486A3292001158002907D118496E330C1C083414500B61486102E00133142BEDD1FFF72AFD50
:40248000114A1E21131C4C339364131C44331970FA30131CD06102200933D877002313640A4B181C0830D063094A5961DA6003221A61084ADA610A221A625A62FFF7B8FF64
:4024C00010BDC0462401002058040020D8040020BB330000C633000010B5FFF7FBFC074BDA69801A002808DDFA32DA611A1C5869203201680C681969A04710BD5804002038
:40250000164B174A10B51A62164A191C5A6200220931CA77191C4431134C14480A701449DC628C60C8600A614A618C61C8610A624A62104918639960191C20315A639A63CB
:40254000DA631A649A64D9609A610B4A0B4B5360191D08331163D36510BDC04658040020F8320000E0320000C8320000DA310000D8040020CB330000D8030020E40000206A
:40258000FEE7000070B51049104B01394A1C15D000221E685C689D68A018AA4203D0B058A0500432F8E7021CDC68151AA54202D0002520C2F9E710330139E7E700F008FD72
:4025C000FFF7A8FBFEE7C04601000000A434000008B500239A000D49032B01D80C4989580C4801338150302BF4D1FEF719FE0022094B1A60094B1A68002A00D11A6080220F
:402600000121D20513680B43136008BD812500000012000000000020C8000020C0000020054A1368002803D0802109060B4301E05B005B081360704780031A40FF22012154
:40264000094B10B51A70094B094819600468094A2240026004221A60074A196013685F318B43136010BDC046F00000208400104008000140FFFFFF9F0400014010B5174C57
:402680001748237817490133DBB223705BB2012B12D0154A022B18D0002B01D0002323700124046060201368834313600C60C0210E4AC90513680EE00C4A036010680C4B0A
:4026C0000340136004230B6007E004230360033B0B60602113680B43136010BDF000002084001040800010400400014008000140FFFFFF9F024B18680006C00F7047C046B1
:4027000004000440034A13681B0C1B04184310607047C046400002408021054A08B5136809060B4313600A2000F03EFA08BDC0460000064010B5054C2378002B03D100F03E
:4027400063F801232370FFF7E7FF10BD00050020094B0A491A680B6800209A420AD00B685A1C403B581E83415B421A40044B985C0A60C0B27047C046180500202405002010
:40278000AC050020044B1868044B1A681B68904200D24130C01A70471805002024050020124A10B51368591C7F3B5C1EA3415B4219400F4B1C68A142FBD014681B689C4271
:4027C00008D10C4B1C680F232340082B02D00A4B18600AE00224094BC0B21C60084B58541160084A13682343136010BD1C050020A80500200802064040020640800F0640CE
:4028000028050020880F064010B51D4A00241D4B07201A6001221C4B1C491C601C4B1A601C4B0B601C4908601C4903300C601C490A601C4A13601C4B1C6000F0BFF90A20C9
:40284000032100F093F919490A2000F083F90422174B1C60174B1C60174B1C60174B1C60174B1A60174B1C60174B1C60174B1C60174B1C70174B1C60174B1C6010BDC0462F
:402880000F00000200000640400006400003064048000640070000800403064010030640440006400002064004020640C92D0000880E0640C80E0640480F0640080F064031
:4028C000C80F0640880F06401805002024050020200500201C050020A8050020F8B50E20032100F043F90E20324900F033F9FF22314B1A60314B1B68002B01DB304900E09F
:402900003049314A31481368314C0B431360314A314B32491A60324A324B1A600023324A1360324A11603249324A11600121324A036023601160314A491811603049314A75
:402940000D682A40C025AD042A430A602E49DC250F1C9A0056582037DF5DAD0135403D432A4FD7193D6001252E4203D09D400668354305608D58AD0704D501259D40266850
:4029800035432560802589586D002E1C8F0501D4802676010D401E4F5900002D00D000257D521C491C4D71430133C912A950082BCCD1F8BD912A000020001A4080031A4032
:4029C000C02E0010C02E101000001A4028021A4038021A400800008004001A40790104000000FF0718001A401C001A4010001A400400040014001A4018021A40000F1A404A
:402A000030001A40FFFFFFDF1434000080001A401006002010270000F005002008B5064B1A68002A07DB80211A6809060A431A600A2000F0DBF808BD00001A4010B5054CD5
:402A40002378002B03D1FFF749FF01232370FFF7E5FF10BD080500208021034A490213680B4313607047C04604001A4008B5072804D9002000F0ACF8002004E0034B800014
:402A8000C018006880B200B208BDC04680011A40014B1A681A60704710021A404023044980010A689A43D2B2034013430B60704700010440402208B5024B1A6000F08AF885
:402AC00008BDC046C000002010B5041C00F02EF80449054A0B68A405134023430B6000F029F810BD0CE400E0FFFF3FFF10B58024054BE4011C60054B98670320FFF7E4FF05
:402B0000034B1C6010BDC04680E100E00000002000E100E0000000000230800804D0C0460138FDD1C046C046C0467047EFF3108072B6704780F310887047C046C046C0464D
:402B40000F2800D901BE802380009B05C3181868196070471F2800D901BE034B8000C318186819607047C0464000002038B5041C0D1E032D00D901BE1F2C00D901BEFFF7C1
:402B8000D5FFA308074A9B009B180322144094400634A240A5401968914329431960FFF7C9FF38BD00E400E01F2318401E3B8340181C014B1860704700E100E01F23184038
:402BC0001E3B8340181C014B1860704780E100E001BE7047034A044913689BB20B4313607047C0460CED00E00400FA0508B5034B1B7A5843FFF790FF08BDC046F4000020F8
:402C0000F0B5C31E87B002932D2B65D8344B1B78984204D8334B1D78334BEDB21EE0334B1B78984204D8324B1D78324BEDB215E0314B1B78984204D8304B1D78304BEDB2DE
:402C40000CE0304B1B78984204D82F4B1D782F4BEDB203E02E4B1D782E4BEDB21C782E4E029B0390F35CE4B20193FFF75FFF019B04900596294F2F2B05D9039B2A2B02D91D
:402C800019263E6008E03F233E681E40019BB34205D2224B019A1A600520FFF73DFF1D4A039B944663441B781D4ADBB213601D4B05201D601C4B1C60FFF798FF019BB3421D
:402CC00006D9059B029A05209B5C3B60FFF724FF0498FFF72FFF00E001BE07B0F0BDC046C0F1FF0FC1F1FF0FC2F1FF0FC3F1FF0FC4F1FF0FC5F1FF0FC6F1FF0FC7F1FF0F0C
:402D0000C8F1FF0FC9F1FF0FCAF1FF0FCBF1FF0FCCF1FF0FCDF1FF0F3C3400002CFF0B4028FF0B401CFF0B4020FF0B4008B5FFF785FC0122014B1A7008BDC046090500208C
:402D40000020014B18567047F00000200222064B1A608022054B12061A600022044B1A60044B03321A6070470C0500200000104004001040080F1040044A054B11681B68C9
:402D80000B43802109010B4313607047040010400C05002010B5054C2379002B03D1FFF7D5FF01232371FFF7E7FF10BD0C050020012304490A689A43D2B2034013430B60C8
:402DC0007047C04600000440274B10B51B68002B00D09847254B1B685B071DD5244B1B681B0716D0234B2448196803685A1C403B5C1EA3415B421A40204B1B689A4203D153
:402E000020221F4B1A70E9E7CBB21E498B540260E4E704221C4B1A601C4B1B689B0721D51B4B1A680F231340082B18D0194B1A491A680B689A420DD00B685A1C7F3B581EFD
:402E400083415B421A40154B15489B5CDBB203600A60E5E70221134A13688B4313600222114B1A6010BDC04604050020CC0F0640080306404003064018050020240500200A
:402E800020050020AC050020C00F06408C0F0640080206401C050020A80500202805002040020640880F0640800F0640002243088B4274D303098B425FD3030A8B4244D3A4
:402EC000030B8B4228D3030C8B420DD3FF22090212BA030C8B4202D31212090265D0030B8B4219D300E0090AC30B8B4201D3CB03C01A5241830B8B4201D38B03C01A5241A5
:402F0000430B8B4201D34B03C01A5241030B8B4201D30B03C01A5241C30A8B4201D3CB02C01A5241830A8B4201D38B02C01A5241430A8B4201D34B02C01A5241030A8B426B
:402F400001D30B02C01A5241CDD2C3098B4201D3CB01C01A524183098B4201D38B01C01A524143098B4201D34B01C01A524103098B4201D30B01C01A5241C3088B4201D360
:402F8000CB00C01A524183088B4201D38B00C01A524143088B4201D34B00C01A5241411A00D20146524110467047FFE701B5002000F00CF802BDC0460029F7D003B5FFF7EA
:402FC00075FF0EBC4243891A1847C0467047C0460E4B70B500251E1C0D4CE41AA410A54204D0AB00F35898470135F8E700F03EFA084B00251E1C084CE41AA410A54204D021
:40300000AB00F35898470135F8E770BD78340000783400007834000094340000002310B5934203D0CC5CC4540133F9E710BD031C8218934202D019700133FAE77047002324
:40304000C25C0133002AFBD1581E704700000000000000000000000081140000B1140000ED140000F5140000000000000000000025160000ED160000FD140000051500000E
:403080000000000000000000F9150000B71600000D150000151500000000000000000000351500009F1700001D150000251500000000000000000000BD180000091B000084
:4030C0002D15000000000000726F7373657269616C5F6D7367732F52657175657374506172616D007374645F6D7367732F54696D65006364373136366337346335353263AB
:4031000033313166626363326665356137626332383900726F7373657269616C5F6D7367732F546F706963496E666F0030616435316638386663343438393266386331302C
:4031400036383430373736343630303500726F7373657269616C5F6D7367732F4C6F670031316162643733316332353933333236316364363138336264313264363239357A
:40318000003966306539386264613635393831393836646466353361666137613430653439004D6573736167652066726F6D206465766963652064726F707065643A206D05
:4031C000657373616765206C6172676572207468616E206275666665722E0000000000000000000000000000191E0000391E0000611E00000000000000000000000000001A
:40320000211F0000F11E0000E11E0000E91E00007374645F6D7367732F537472696E67003939326365386131363837636563386338626438383365633733636134316431FD
:40324000006368617474657200000000000000000000000000000000092000000D200000112000001920000000000000000000004520000031200000352000003D2000003B
:403280007374645F6D7367732F456D70747900643431643863643938663030623230346539383030393938656366383432376500746F67676C655F6C6564000000000000B3
:4032C0000000000000000000D9230000A1220000D1200000D92000000000000000000000E12000000B2300002D2100003521000000000000000000003D2100007F23000052
:4033000079210000812100007374645F6D7367732F4D756C7469417272617944696D656E73696F6E00346364306338336138363833646561653430656364616336306535F8
:403340003362666138007374645F6D7367732F4D756C746941727261794C61796F7574003066656432613131633133653131633535373162346532613939356139316133F3
:40338000007374645F6D7367732F496E7431364D756C7469417272617900643933333864376635323366636236393266616539643061306539663036376300444320414383
:4033C0004920414351006368616E00616463000005300F4002310F4002330F4005410F4002420F4002430F4002600F40300136013E4158045F0118011A80AA40B4015B4046
:403400009B40AB40D480EE806102D802B502EC08020111010000000000000000000000000000000000000000000000000000000000000000000102030405061203040506CE
:403440000708090A0B0C0E0F101112131415161718191B1C1D1E1F2021222325262728292A2B2E2F3031323334350000F8B5C046F8BC08BC9E467047491400008D1D0000A1
:403480006D1E0000B51F0000A120000001250000D1250000F8B5C046F8BC08BC9E46704721140000B8340000D00000203800000018050000000000000000000068656C6CFF
:4034C0006F20776F726C642100000000A4040020B8040020CC040020FF0000000000E02EC05D00001800000000366E01000000000000000000000000000000000000000079
:40350000000000000000000000000000000000000000000000000000000000000000000000000000000000000000000000000000000000000000000000000000000000008B
:40354000000000000000000000000000000000000000000000000000000000000000000000000000000000000000000000000000000000000000000000000000000000004B
:40358000000000000000000000000000000000000000000000000000000000000000000000000000000000000000000000000000000000000000000000000000000000000B
:4035C00000000000000000000000000000000000000000000000000000000000000000000000000000000000000000000000000000000000000000000000000000000000CB
:407FC0006D111200002300000000230000000000000001000000010000000000000000000000000000000000000000000000000000000000000000000000000000000000A9
:0200000490303A
:0200000045E5D4
:0200000490402A
:20000000FFFF010000000000000000000000000000000000000000000000000000000000E1
:0200000490501A
:0C000000000204C81193110004D85778C6
:0200000490600A
:0100000001FE
:00000001FF